{
  "_format": "hh-sol-artifact-1",
  "contractName": "Twitter",
  "sourceName": "contracts/twitter-q1.sol",
  "abi": [
    {
      "inputs": [],
      "name": "nextTweetId",
      "outputs": [
        {
          "internalType": "uint256",
          "name": "",
          "type": "uint256"
        }
      ],
      "stateMutability": "view",
      "type": "function"
    },
    {
      "inputs": [
        {
          "internalType": "string",
          "name": "_content",
          "type": "string"
        }
      ],
      "name": "postTweet",
      "outputs": [],
      "stateMutability": "nonpayable",
      "type": "function"
    },
    {
      "inputs": [
        {
          "internalType": "address",
          "name": "_user",
          "type": "address"
        }
      ],
      "name": "readTweets",
      "outputs": [
        {
          "components": [
            {
              "internalType": "uint256",
              "name": "tweetId",
              "type": "uint256"
            },
            {
              "internalType": "address",
              "name": "author",
              "type": "address"
            },
            {
              "internalType": "string",
              "name": "content",
              "type": "string"
            },
            {
              "internalType": "uint256",
              "name": "createdAt",
              "type": "uint256"
            }
          ],
          "internalType": "struct Twitter.Tweet[]",
          "name": "",
          "type": "tuple[]"
        }
      ],
      "stateMutability": "view",
      "type": "function"
    },
    {
      "inputs": [
        {
          "internalType": "string",
          "name": "_name",
          "type": "string"
        }
      ],
      "name": "registerAccount",
      "outputs": [],
      "stateMutability": "nonpayable",
      "type": "function"
    },
    {
      "inputs": [
        {
          "internalType": "uint256",
          "name": "",
          "type": "uint256"
        }
      ],
      "name": "tweets",
      "outputs": [
        {
          "internalType": "uint256",
          "name": "tweetId",
          "type": "uint256"
        },
        {
          "internalType": "address",
          "name": "author",
          "type": "address"
        },
        {
          "internalType": "string",
          "name": "content",
          "type": "string"
        },
        {
          "internalType": "uint256",
          "name": "createdAt",
          "type": "uint256"
        }
      ],
      "stateMutability": "view",
      "type": "function"
    },
    {
      "inputs": [
        {
          "internalType": "address",
          "name": "",
          "type": "address"
        }
      ],
      "name": "users",
      "outputs": [
        {
          "internalType": "address",
          "name": "wallet",
          "type": "address"
        },
        {
          "internalType": "string",
          "name": "name",
          "type": "string"
        }
      ],
      "stateMutability": "view",
      "type": "function"
    }
  ],
  "bytecode": "0x608060405234801561001057600080fd5b50611283806100206000396000f3fe608060405234801561001057600080fd5b50600436106100625760003560e01c80630cbc3dc41461006757806371c85b8d146100835780638076e02b146100b3578063a87430ba146100d1578063bff6de2014610102578063e8d857b01461011e575b600080fd5b610081600480360381019061007c9190610be0565b610151565b005b61009d60048036038101906100989190610c8b565b6104c9565b6040516100aa9190610e9e565b60405180910390f35b6100bb610733565b6040516100c89190610ecf565b60405180910390f35b6100eb60048036038101906100e69190610c8b565b610739565b6040516100f9929190610f43565b60405180910390f35b61011c60048036038101906101179190610be0565b610805565b005b61013860048036038101906101339190610f9f565b610932565b6040516101489493929190610fcc565b60405180910390f35b3360008060008373ffffffffffffffffffffffffffffffffffffffff1673ffffffffffffffffffffffffffffffffffffffff1681526020019081526020016000206040518060600160405290816000820160009054906101000a900473ffffffffffffffffffffffffffffffffffffffff1673ffffffffffffffffffffffffffffffffffffffff1673ffffffffffffffffffffffffffffffffffffffff16815260200160018201805461020390611047565b80601f016020809104026020016040519081016040528092919081815260200182805461022f90611047565b801561027c5780601f106102515761010080835404028352916020019161027c565b820191906000526020600020905b81548152906001019060200180831161025f57829003601f168201915b50505050508152602001600282018054806020026020016040519081016040528092919081815260200182805480156102d457602002820191906000526020600020905b8154815260200190600101908083116102c0575b505050505081525050905060008160200151905060008151141561032d576040517f08c379a0000000000000000000000000000000000000000000000000000000008152600401610324906110eb565b60405180910390fd5b6000604051806080016040528060025481526020013373ffffffffffffffffffffffffffffffffffffffff16815260200187878080601f016020809104026020016040519081016040528093929190818152602001838380828437600081840152601f19601f820116905080830192505050505050508152602001428152509050806001600060025481526020019081526020016000206000820151816000015560208201518160010160006101000a81548173ffffffffffffffffffffffffffffffffffffffff021916908373ffffffffffffffffffffffffffffffffffffffff1602179055506040820151816002019080519060200190610431929190610a0a565b50606082015181600301559050506000803373ffffffffffffffffffffffffffffffffffffffff1673ffffffffffffffffffffffffffffffffffffffff1681526020019081526020016000206002016002549080600181540180825580915050600190039060005260206000200160009091909190915055600260008154809291906104bc9061113a565b9190505550505050505050565b606060008060008473ffffffffffffffffffffffffffffffffffffffff1673ffffffffffffffffffffffffffffffffffffffff16815260200190815260200160002060020180548060200260200160405190810160405280929190818152602001828054801561055857602002820191906000526020600020905b815481526020019060010190808311610544575b505050505090506000815167ffffffffffffffff81111561057c5761057b611183565b5b6040519080825280602002602001820160405280156105b557816020015b6105a2610a90565b81526020019060019003908161059a5790505b50905060005b8251811161072857600160008483815181106105da576105d96111b2565b5b60200260200101518152602001908152602001600020604051806080016040529081600082015481526020016001820160009054906101000a900473ffffffffffffffffffffffffffffffffffffffff1673ffffffffffffffffffffffffffffffffffffffff1673ffffffffffffffffffffffffffffffffffffffff16815260200160028201805461066b90611047565b80601f016020809104026020016040519081016040528092919081815260200182805461069790611047565b80156106e45780601f106106b9576101008083540402835291602001916106e4565b820191906000526020600020905b8154815290600101906020018083116106c757829003601f168201915b5050505050815260200160038201548152505082828151811061070a576107096111b2565b5b602002602001018190525080806107209061113a565b9150506105bb565b508092505050919050565b60025481565b60006020528060005260406000206000915090508060000160009054906101000a900473ffffffffffffffffffffffffffffffffffffffff169080600101805461078290611047565b80601f01602080910402602001604051908101604052809291908181526020018280546107ae90611047565b80156107fb5780601f106107d0576101008083540402835291602001916107fb565b820191906000526020600020905b8154815290600101906020018083116107de57829003601f168201915b5050505050905082565b600082828080601f016020809104026020016040519081016040528093929190818152602001838380828437600081840152601f19601f820116905080830192505050505050509050600081511415610893576040517f08c379a000000000000000000000000000000000000000000000000000000000815260040161088a9061122d565b60405180910390fd5b60008060003373ffffffffffffffffffffffffffffffffffffffff1673ffffffffffffffffffffffffffffffffffffffff1681526020019081526020016000209050338160000160006101000a81548173ffffffffffffffffffffffffffffffffffffffff021916908373ffffffffffffffffffffffffffffffffffffffff160217905550838382600101919061092b929190610ace565b5050505050565b60016020528060005260406000206000915090508060000154908060010160009054906101000a900473ffffffffffffffffffffffffffffffffffffffff169080600201805461098190611047565b80601f01602080910402602001604051908101604052809291908181526020018280546109ad90611047565b80156109fa5780601f106109cf576101008083540402835291602001916109fa565b820191906000526020600020905b8154815290600101906020018083116109dd57829003601f168201915b5050505050908060030154905084565b828054610a1690611047565b90600052602060002090601f016020900481019282610a385760008555610a7f565b82601f10610a5157805160ff1916838001178555610a7f565b82800160010185558215610a7f579182015b82811115610a7e578251825591602001919060010190610a63565b5b509050610a8c9190610b54565b5090565b604051806080016040528060008152602001600073ffffffffffffffffffffffffffffffffffffffff16815260200160608152602001600081525090565b828054610ada90611047565b90600052602060002090601f016020900481019282610afc5760008555610b43565b82601f10610b1557803560ff1916838001178555610b43565b82800160010185558215610b43579182015b82811115610b42578235825591602001919060010190610b27565b5b509050610b509190610b54565b5090565b5b80821115610b6d576000816000905550600101610b55565b5090565b600080fd5b600080fd5b600080fd5b600080fd5b600080fd5b60008083601f840112610ba057610b9f610b7b565b5b8235905067ffffffffffffffff811115610bbd57610bbc610b80565b5b602083019150836001820283011115610bd957610bd8610b85565b5b9250929050565b60008060208385031215610bf757610bf6610b71565b5b600083013567ffffffffffffffff811115610c1557610c14610b76565b5b610c2185828601610b8a565b92509250509250929050565b600073ffffffffffffffffffffffffffffffffffffffff82169050919050565b6000610c5882610c2d565b9050919050565b610c6881610c4d565b8114610c7357600080fd5b50565b600081359050610c8581610c5f565b92915050565b600060208284031215610ca157610ca0610b71565b5b6000610caf84828501610c76565b91505092915050565b600081519050919050565b600082825260208201905092915050565b6000819050602082019050919050565b6000819050919050565b610cf781610ce4565b82525050565b610d0681610c4d565b82525050565b600081519050919050565b600082825260208201905092915050565b60005b83811015610d46578082015181840152602081019050610d2b565b83811115610d55576000848401525b50505050565b6000601f19601f8301169050919050565b6000610d7782610d0c565b610d818185610d17565b9350610d91818560208601610d28565b610d9a81610d5b565b840191505092915050565b6000608083016000830151610dbd6000860182610cee565b506020830151610dd06020860182610cfd565b5060408301518482036040860152610de88282610d6c565b9150506060830151610dfd6060860182610cee565b508091505092915050565b6000610e148383610da5565b905092915050565b6000602082019050919050565b6000610e3482610cb8565b610e3e8185610cc3565b935083602082028501610e5085610cd4565b8060005b85811015610e8c5784840389528151610e6d8582610e08565b9450610e7883610e1c565b925060208a01995050600181019050610e54565b50829750879550505050505092915050565b60006020820190508181036000830152610eb88184610e29565b905092915050565b610ec981610ce4565b82525050565b6000602082019050610ee46000830184610ec0565b92915050565b610ef381610c4d565b82525050565b600082825260208201905092915050565b6000610f1582610d0c565b610f1f8185610ef9565b9350610f2f818560208601610d28565b610f3881610d5b565b840191505092915050565b6000604082019050610f586000830185610eea565b8181036020830152610f6a8184610f0a565b90509392505050565b610f7c81610ce4565b8114610f8757600080fd5b50565b600081359050610f9981610f73565b92915050565b600060208284031215610fb557610fb4610b71565b5b6000610fc384828501610f8a565b91505092915050565b6000608082019050610fe16000830187610ec0565b610fee6020830186610eea565b81810360408301526110008185610f0a565b905061100f6060830184610ec0565b95945050505050565b7f4e487b7100000000000000000000000000000000000000000000000000000000600052602260045260246000fd5b6000600282049050600182168061105f57607f821691505b6020821081141561107357611072611018565b5b50919050565b7f546869732077616c6c657420646f6573206e6f742062656c6f6e6720746f206160008201527f6e79206163636f756e742e000000000000000000000000000000000000000000602082015250565b60006110d5602b83610ef9565b91506110e082611079565b604082019050919050565b60006020820190508181036000830152611104816110c8565b9050919050565b7f4e487b7100000000000000000000000000000000000000000000000000000000600052601160045260246000fd5b600061114582610ce4565b91507fffffffffffffffffffffffffffffffffffffffffffffffffffffffffffffffff8214156111785761117761110b565b5b600182019050919050565b7f4e487b7100000000000000000000000000000000000000000000000000000000600052604160045260246000fd5b7f4e487b7100000000000000000000000000000000000000000000000000000000600052603260045260246000fd5b7f4e616d652063616e6e6f7420626520616e20656d70747920737472696e672e00600082015250565b6000611217601f83610ef9565b9150611222826111e1565b602082019050919050565b600060208201905081810360008301526112468161120a565b905091905056fea2646970667358221220bf266dd46cfbdd6bf3cb74146edb0e888b36bdee93fc9afd0e1ceac770b3a52164736f6c63430008090033",
  "linkReferences": {},
  "deployedLinkReferences": {}
}